:020000040800F2
:100000000000032095050008391E00083B1E00086B
:100010003D1E00083F1E0008411E000800000000B1
:10002000000000000000000000000000417900080E
:10003000431E000800000000D17900084F7200083C
:10004000E5050008E5050008E5050008E5050008E8
:10005000E5050008E5050008E5050008E5050008D8
:10006000E5050008E5050008E5050008E5050008C8
:10007000E5050008E5050008E5050008E5050008B8
:10008000E5050008E5050008E5050008E5050008A8
:10009000E5050008E5050008E5050008E505000898
:1000A000E5050008E5050008E5050008E505000888
:1000B000E5050008E5050008E5050008E505000878
:1000C000E5050008E5050008E5050008E505000868
:1000D000E5050008E5050008E5050008E505000858
:1000E000E5050008E5050008E5050008E505000848
:1000F000E5050008E5050008E5050008E505000838
:10010000E5050008E5050008E5050008E505000827
:10011000E5050008E5050008451E0008E50500089E
:10012000E5050008E5050008E5050008E505000807
:10013000E5050008E5050008E5050008E5050008F7
:10014000E5050008E5050008E5050008E5050008E7
:10015000E5050008E5050008E5050008E5050008D7
:10016000E5050008E5050008E5050008E5050008C7
:10017000E5050008E5050008E505000800000000A9
:10018000E5050008E5050008E5050008E5050008A7
:10019000E5050008E5050008E5050008E505000897
:0C01A000511E0008E50500085D1E000867
:1001B00010B5054C237833B9044B13B10448AFF3A1
:1001C00000800123237010BD6401002000000000A6
:1001D0006C0F020808B5034B1BB103490348AFF38A
:1001E000008008BD00000000680100206C0F0208BC
:1001F00001F0FF01102A2BDB10F0070F08D010F8D8
:10020000013B013A8B422DD010F0070F42B3F6D1DB
:10021000F0B441EA012141EA014122F007047FF0F4
:1002200000070023F0E80256083C85EA010586EA4B
:10023000010685FA47F5A3FA87F586FA47F6A5FA87
:1002400087F68EB9EED1F0BC01F0FF0102F0070293
:1002500032B110F8013B013A83EA010313B1F8D13E
:100260000020704701387047002D06BF354603381F
:10027000073815F0010F07D1013015F4807F02BF58
:10028000013015F4C03F0130F0BC0138704700BFA9
:1002900053B94AB9002908BF00281CBF4FF0FF31ED
:1002A0004FF0FF3000F074B9ADF1080C6DE904CEE9
:1002B00000F006F8DDF804E0DDE9022304B0704741
:1002C0002DE9F047089D04468E46002B4DD18A4209
:1002D000944669D9B2FA82F252B101FA02F3C2F13C
:1002E000200120FA01F10CFA02FC41EA030E9440CD
:1002F0004FEA1C48210CBEFBF8F61FFA8CF708FBEE
:1003000016E341EA034306FB07F199420AD91CEBC5
:10031000030306F1FF3080F01F81994240F21C81F7
:10032000023E63445B1AA4B2B3FBF8F008FB10333F
:1003300044EA034400FB07F7A7420AD91CEB040474
:1003400000F1FF3380F00A81A74240F20781644444
:10035000023840EA0640E41B00261DB1D4400023C9
:10036000C5E900433146BDE8F0878B4209D9002D2D
:1003700000F0EF800026C5E9000130463146BDE8B7
:10038000F087B3FA83F6002E4AD18B4202D3824221
:1003900000F2F980841A61EB030301209E46002DD0
:1003A000E0D0C5E9004EDDE702B9FFDEB2FA82F225
:1003B000002A40F09280A1EB0C014FEA1C471FFA83
:1003C0008CFE0126200CB1FBF7F307FB131140EA6A
:1003D00001410EFB03F0884208D91CEB010103F137
:1003E000FF3802D2884200F2CB804346091AA4B2F9
:1003F000B1FBF7F007FB101144EA01440EFB00FECD
:10040000A64508D91CEB040400F1FF3102D2A64531
:1004100000F2BB800846A4EB0E0440EA03409CE7D0
:10042000C6F12007B34022FA07FC4CEA030C20FA7D
:1004300007F401FA06F31C43F9404FEA1C4900FA9D
:1004400006F3B1FBF9F8200C1FFA8CFE09FB18111A
:1004500040EA014108FB0EF0884202FA06F20BD98D
:100460001CEB010108F1FF3A80F08880884240F2DD
:100470008580A8F102086144091AA4B2B1FBF9F021
:1004800009FB101144EA014100FB0EFE8E4508D91C
:100490001CEB010100F1FF346CD28E456AD90238A1
:1004A000614440EA0840A0FB0294A1EB0E01A14286
:1004B000C846A64656D353D05DB1B3EB080261EBF4
:1004C0000E0101FA07F722FA06F3F1401F43C5E9CE
:1004D000007100263146BDE8F087C2F12003D84004
:1004E0000CFA02FC21FA03F3914001434FEA1C4746
:1004F0001FFA8CFEB3FBF7F007FB10360B0C43EA38
:10050000064300FB0EF69E4204FA02F408D91CEBE7
:10051000030300F1FF382FD29E422DD902386344E5
:100520009B1B89B2B3FBF7F607FB163341EA034185
:1005300006FB0EF38B4208D91CEB010106F1FF38D4
:1005400016D28B4214D9023E6144C91A46EA0046CB
:1005500038E72E46284605E70646E3E61846F8E65D
:100560004B45A9D2B9EB020864EB0C0E0138A3E7A6
:100570004646EAE7204694E74046D1E7D0467BE787
:10058000023B614432E7304609E76444023842E7FF
:10059000704700BFDFF834D0002103E00C4B5B58FC
:1005A000435004310B480C4B42189A42F6D30B4A85
:1005B00002E0002342F8043B094B9A42F9D304F0CD
:1005C0001FFC1FF06DFC00F005FF704700000320CA
:1005D0000C44060800000020640100206401002093
:1005E0009C3E0120FEE700F0BDBC00F02DBD704731
:1005F00010B5042104461FF0DAFB204610BD0000B0
:1006000038B50C4B0C4C18800C4B82201980636859
:10061000984740F6110398420AD1094D23682C608F
:10062000822098472B688220DB689847002038BDDD
:100630000120FCE7800100204C0000208201002006
:10064000840100204FF4A071F020FFF7D9BF000013
:10065000F7B5344D2B6804461B698220984780B259
:10066000208000284CD02B680DF106025B6901A99F
:1006700082209847BDF8063040F67462934241D913
:10068000ADF80620BDF80620C2F56762043292B2CA
:100690000A2A3DD90B23B2FBF3F2234B1B889A4263
:1006A00001D9013B9AB2BDF8043040F6B8318B4213
:1006B00030D8C3F571630E339BB20F21B3FBF1F356
:1006C0001A4909888B4201D94B1E9BB2184E194D0D
:1006D00030682F68834281B28CBF591AC91AB8B2E8
:1006E000BA428CBF101A801A89B280B2014405291F
:1006F000C8BF33603368C8BF2A6063802B68A3809B
:1007000003B0F0BDB32B9CBFB423ADF80630B9E7FE
:100710000022C8E7C3F56D6308339BB20E2BCCD81B
:100720000023D3E784010020820100208001002003
:10073000880100208C01002037B568460D4614461C
:10074000FFF786FFBDF8000030B1BDF802302B6026
:10075000BDF804302360012003B030BD032821D848
:10076000DFE800F0020B12190F4B1A68B2FA82F29E
:10077000520904210D4804F0DBBD0B4B5A68B2FA54
:1007800082F252090821F5E7074B9A68B2FA82F221
:1007900052091021EEE7044BDA68B2FA82F25209EC
:1007A0002021E7E7704700BF9001002000100240C1
:1007B000032821D8DFE800F0020B12190F4B1A684A
:1007C000003A18BF012204210D4804F0B1BD0B4BC3
:1007D0005A68003A18BF01220821F5E7074B9A68CA
:1007E000003A18BF01221021EEE7044BDA68003A04
:1007F00018BF01222021E7E7704700BF90010020C9
:100800000010024003280DD8DFE800F00206080AB5
:100810000421054804F091BD0821FAE71021F8E70A
:100820002021F6E7704700BF00100240012380F846
:10083000741080F87530704700207047034B416496
:10084000003918BF01211970704700BFEF3B01202C
:1008500000207047836B0BB10846184770474FF66E
:10086000FF707047406803689B691847704770477E
:100870007047000070B5044600F086FC2368D3F88A
:100880008850044BD4E90F122046AC46BDE87040B6
:10089000604700BF000000D008B503680446D3F8E5
:1008A00080309847236820469B6F984700F0ECF80B
:1008B000236820461B6F9847292000F0EFFF00F0C7
:1008C000E3F8236820461B6F9847F8E710B5044605
:1008D0000AF00CF923682046D3F8AC30BDE810408C
:1008E000184700F043BC00F047BC00F073BC00F0B8
:1008F00019BC00F073BC00F07BBC00F01DBC09F01B
:100900005DBB10B57C2104461FF051FA204610BD96
:1009100090F877301BB1406803681B681847184689
:100920007047000010B590F8341090F874400C4BEC
:100930008C421A7809D03AB90A4A0B4914880888B7
:1009400010800C8001221A7010BD002AFCD0054ACC
:1009500005491488088810800C800022F3E700BF46
:10096000E83B0120E43B0120E63B012070B50D4649
:10097000194635B9094B0A4A0A4840F2D2211FF0FC
:1009800045FAC0E90F52084B003A18BF01221A700D
:100990000368BDE87040D3F88C301847D8110208BE
:1009A000101202085E120208EE3B012008B5094B46
:1009B0001B888B4203D8084B1B88934205D9074BF1
:1009C000074A08489E211FF021FA074B1980074B60
:1009D0001A8008BDE43B0120E63B0120A312020877
:1009E000061302085E120208EA3B0120EC3B0120DC
:1009F000012108B50022084606F0B7FC0A4B186032
:100A000028B90A4B0A4A28210A481FF0FFF9002298
:100A10000421012006F04FFD074B186018B9074B61
:100A2000034A2C21F0E708BDA40100202414020889
:100A30006D1402089C140208A00100200015020891
:100A4000024B4FF0FF31186806F0D9BCA40100201A
:100A5000014B186806F0FEBCA4010020024B0021E7
:100A6000186806F0CCBC00BFA4010020FFF7F0BF5F
:100A700003480449006800231A4606F057BD00BF2A
:100A8000A00100200400002013B5084C00231A46E2
:100A900001A9206806F07AFD20684FF0FF3300229C
:100AA00001A906F073FD02B010BD00BFA001002037
:100AB00003685B6C18470120704703689B6A1847FE
:100AC00082B0002301930D4B1A6B42F400021A63AB
:100AD0001A6B02F400020192019A1A6942F40002B0
:100AE0001A611A6922F400021A61054B054A1A615B
:100AF000054B4FF080629A6002B0704700380240A8
:100B0000DC2A00204D0B000800E100E040F2EF304D
:100B100070470000054B0360054B4FF08062C3F83F
:100B20008820BFF34F8FBFF36F8F7047B416020852
:100B300000E100E010B504464FF45A61FFF7EAFF08
:100B400020461FF034F9204610BD0000024B1B6800
:100B5000586803685B691847F03B012070B504468C
:100B600025460A4B0C30002660602672667245F8F6
:100B7000203B602229460AF00FF904F55A63EE6023
:100B80002435AB42FBD1204670BD00BFB41602082D
:100B900008B50B290BD8DFE801F01206100A0A0A83
:100BA0000A0808080808012008BD0520FCE7054BD5
:100BB000054A064866211FF029F90020F4E70220C3
:100BC000F2E700BF421502085D150208A7150208EA
:100BD00008B50A2909D8DFE801F010060E08080850
:100BE000080606060600012008BD054B054A064812
:100BF00087211FF00BF90020F6E70220F4E700BF81
:100C00004215020809160208A71502082DE9F84343
:100C10004F7F0C4639468146FFF7BAFF94F81E8095
:100C2000054641464846FFF7B3FF4146064648465B
:100C3000FFF7CEFFA18A628B424B521A1A649A6167
:100C4000228B521A1A61E28A586342EA01425A64BC
:100C500020696268D863DA60216894F81CC0802932
:100C60004FEA0C6226D010D8202945EA020461D050
:100C700040295FD004295DD0324B2A4342F4003230
:100C80004745DA615AD0304A40E0B1F5807F07D05D
:100C9000B1F5007FF0D142F4003242F0090203E0E6
:100CA00042F4003242F00A02DA61E2681A625E62DD
:100CB00058612AE0A4682A4342F40032211DD96217
:100CC000DA6122785E62586142B1012A21D01F4B5D
:100CD0001F4A204840F211111FF098F8DA69618824
:100CE00022F47F42013922F0100242EA0122DA6145
:100CF0000120144BDA6942F02002DA61DA699206C7
:100D0000FCD410229A600028BDD0134A1A60BDE8B6
:100D1000F8836288D969541E21F47F4222F01002C0
:100D200042EA0422BCF1FF0042F0100218BF012089
:100D3000DA61DEE744F40034DC61B8E740F2012216
:100D4000E4E700BF00B002400102010054160208AF
:100D50006E160208A71502080102020070B50C46C3
:100D6000897FFFF735FFA68AE18A628B154B2569DB
:100D7000586341EA0641921B5964DD631A64266890
:100D8000E168082E0DD19A611A615862207F0E4ADF
:100D900042EA0062DA610D4A19625D61DD601A6043
:100DA00070BD0022D8611A6148090A0A02F478422B
:100DB00000F4FC600243C1F3C4010A439A63044A8D
:100DC000EDE700BF00B0024009000100010202008F
:100DD00001020300034B1A68D207FCD423229A6055
:100DE000704700BF00B0024030B50F4C2568ED07DA
:100DF000FCD423250904A56041F001010225FF2B45
:100E000065636164E0630AD00849656241EA03638F
:100E1000E361074B22626061E060236030BDE56101
:100E2000039BA363034BF8E700B0024009000100F5
:100E30000100020001000300012070470C207047F0
:100E40000C2303FB0100083070470C2303FB010057
:100E5000083070470120704741F6C800704741F6DE
:100E6000C80303FB01000830704741F6C80303FBC9
:100E7000010008307047012070471020704700EBD8
:100E800001100830704700EB011008307047084629
:100E900001F09EBA10B5034B0360044608F017FB3F
:100EA000204610BD6C17020810B50446FFF7F2FF8C
:100EB000204614211EF07BFF204610BD10B5034BC9
:100EC0000360044608F003FB204610BD38170208F3
:100ED00010B50446FFF7F2FF204641F6D0011EF0A0
:100EE00066FF204610BD000010B5034B03600446AA
:100EF00008F0EDFA204610BD0417020810B50446AC
:100F0000FFF7F2FF204618211EF051FF204610BDCA
:100F100010B5094B0360044600F5C7501C30FFF7BD
:100F2000B9FF04F12C00FFF7C9FF04F11400FFF72B
:100F3000DBFF204610BD00BFA017020808B502481D
:100F4000FFF7E6FF08BD00BFAC01002010B5044666
:100F5000FFF7DEFF204641F66C211EF028FF2046F9
:100F600010BD00002DE9F34101F004F8054601F041
:100F700005F800240146234628462246009412F034
:100F8000F7FD254B254A264D1A60204602F0F4FD58
:100F9000244812F055FD2B78BFF35B8FDB0735D467
:100FA00028461EF006FF88B31F4C204B204F2360BD
:100FB00004F1140000F5C85604F12C086060C4F870
:100FC0000880E760266108F083FA1A4B63614046A7
:100FD00008F07EFA184BE362384608F079FA04F517
:100FE0008053164AC3F8FC2803F5116002F068FF2D
:100FF0002246311F304602F041FE304601F0E8F94A
:101000000F481EF021FF28461EF0DFFE0D4802B0FB
:10101000BDE8F041FFF72EBC543C0120382A0020E7
:10102000A801002008000020AC010020A017020841
:10103000A81A002004170208381702086C170208C3
:101040003D0F0008BC2900200148FFF725BC00BF68
:10105000BC29002070B5234C234E244B244D236023
:101060003046FFF77BFD284615F08CFE214B2248C9
:10107000DC60224C03600022F0204FF4807120805D
:10108000C3E912121E4C1F492080C3E919121E4CDD
:101090001A864FF080714FF4A07059670121C3E99F
:1010A0000422C3E90622C3E90822C3E90A22C3E9EC
:1010B0000E22C3E91022C3E91422C3E916221A66DC
:1010C00083F86C201A67C3E9016583F878102080E3
:1010D0000E4C83F8341020800D4802700D4A1A60BF
:1010E00070BD00BF181C00201C1C0020C811020885
:1010F0003C2A0020BC290020F03B0120E43B0120D9
:10110000EA3B012001000001E63B0120EC3B01200D
:10111000E83B0120541302080148FFF7FBBC00BF65
:101120001C1C0020034B902283F85A2383F8582379
:10113000704700BF00E100E0094A0A49D3680A4845
:10114000C3F30A03013B9BB20B801169C1F30A018F
:10115000013901801364536B43F0010353637047FB
:1011600000680140B82A0020B62A0020014BD3F8BD
:10117000AC00704700680140024B0122C3F8AC107C
:101180005A6270470068014070B5044608F06BFF72
:1011900023685D6E0EF0F6FF01462046A8472368DF
:1011A000054AD3F888502046AC460023BDE870407D
:1011B000A2F51631604700BF00B004D008F03ABF76
:1011C00090F84B3013B1024B01221A7008F03EBF69
:1011D000B42A002008F0F8BE09F051B8034B4FF0D4
:1011E00080629A604FF080729A60704700E100E080
:1011F000084B4FF08062C3F88820BFF34F8FBFF3D6
:101200006F8F4FF08072C3F88820BFF34F8FBFF30A
:101210006F8F704700E100E010B5144C236823B3D2
:10122000134B144A1B6C11888B4213D1124B198833
:1012300004F064FE226892F86630013382F866306A
:10124000FFF716FC206809F051FCBDE810400020B3
:10125000FFF784BA04F052FE206803681B6A9847BF
:10126000BDE810400020FFF7A3BA10BDF03B0120FD
:1012700000680140B82A0020B62A002007B5064BB6
:10128000ADF806001B68054801220DF1060105F0C6
:1012900081FB03B05DF804FB10000020502C0020FF
:1012A00073B5234D234C244E4FF40061284604F0BF
:1012B00039F801280ED1206806F097F9012809D8DD
:1012C00052238DF807302068C82300220DF1070152
:1012D00006F02CF94FF40051284604F023F80128B9
:1012E0000ED1206806F081F9012809D84C238DF829
:1012F00007302068C82300220DF1070106F016F917
:101300000121304604F00EF801280DD1206806F0C6
:101310006CF9024640B94A238DF807302068C8238B
:101320000DF1070106F002F90A2006F012F8BBE7FA
:1013300000080240C42A00200000024030B595B0E9
:10134000102200210AA81EF0EDFD1422002103A89E
:101350001EF0E8FD00241D4B01941A6C42F08052EF
:101360001A641B6C03F080530193019B184B029489
:101370001A6842F440421A601B6803F44043029327
:101380000122029B4FF48033CDE9082302254FF45C
:101390008003CDE90E5308214FF4A873CDE9101353
:1013A00008A804231393129504F0C6FD0F23CDE97A
:1013B00003354FF4A0504FF48053CDE906030521C7
:1013C00003A8059404F096FF15B030BD0038024024
:1013D000007000402DE980489BB003F01FFDFFF72F
:1013E000ADFF142200210DA800241EF09BFDC54B6B
:1013F00000941A6BC448C54D42F010021A631A6B70
:1014000002F010020092009A01941A6B42F020023E
:101410001A631A6B02F020020192019A02941A6B6D
:1014200042F080021A631A6B02F080020292029A62
:1014300003941A6B42F004021A631A6B02F004025E
:101440000392039A04941A6B42F001021A631A6B16
:1014500002F001020492049A05941A6B42F002020F
:101460001A631A6B02F002020592059A06941A6B2F
:1014700042F040021A631A6B02F040020692069A8A
:1014800007941A6B42F008021A631B6B03F00803FF
:10149000079322463C21079B03F04AFF9C482246C3
:1014A000042103F045FF22469A484FF4405103F0CF
:1014B0003FFF01264FF003093C239348CDF84090AD
:1014C0000DA902274FF00408CDE90D360F9403F063
:1014D00043FE8F480F940DA9CDE90D86109703F0B8
:1014E0003BFE4FF440538B480DA9CDE90D36CDE9B5
:1014F0000F4703F031FE86480F940DA94FF4006B9F
:10150000CDE90D6403F028FE81480DA94FF4005A7F
:10151000CDE90DB4CDE90F4703F01EFE0DA97C48BF
:101520000F94CDE90DA403F017FE7B487B4B0360BD
:1015300003F006FD7A4A7B4B2C62C5E9002328465E
:101540004FF48043C5E90434C5E90244C5E90644C3
:1015500004F0D8F81021284604F014FB2146284650
:1015600004F02FFB7048714984624FF48273C0E924
:1015700000134FF400751823C0E906530A236C4D7D
:10158000C362C0E90244C0E90444C0E9084405F06C
:10159000A5F9684BC5F828A04FF0100CC5E9003636
:1015A0004023C5E904C34FF4C073C5E906340DA94F
:1015B00007232846CDE91039CDE90E384FF0080A47
:1015C000C5E908B4C5E90248CDE912770D9705F0E1
:1015D00085F84FF6FF7209A92846CDE90AA60894B6
:1015E00009960C9405F09AF8304603F043FC4FF648
:1015F000FF7209A92846CDE9097ACDE90B6405F007
:101600008DF84FF6FF7209A92846CDE9099ACDE970
:101610000B8405F083F84FF40C730893089B0C932C
:101620004FF6FF7209A92846CDE9098A0B9605F005
:1016300075F840F26A51284605F08EF834222146AA
:101640000DEB02001EF06EFC3B4D3C4BAC86C5E939
:1016500000340923C5E905361D2340F20D1EC5E9F6
:10166000073940F24313C5E909E3284640F247131E
:1016700040F21719C5E90B93C5E902442C6185F8BE
:10168000364004F043FBFF21F022CDE912144FF461
:10169000806B05214FF4A073CDE90E24CDE914B180
:1016A000CDE916420DA922462846CDE91037244D32
:1016B00018930D94ADF864408DF8664004F0F1FB8A
:1016C000204B2B601B6898472B681F4DDB689847A1
:1016D0001E4BC5E90A47C5E90C442846C5E9003454
:1016E000C5E9027403F03CFC3146284603F0F0FCE7
:1016F000FEF779FF05F0B8FD154A3146504605F072
:10170000DAFE27E000380240001002401C2B0020C7
:1017100000080240000C0240D42A002000300240A1
:10172000005C0040A0860100502C002000500140C9
:101730001C2C0020400100A0742B002000680140F8
:10174000C02A002014000020DC2A002000B0024043
:10175000EC1702080C4B0D4A18604146504605F044
:10176000AAFE0B4B0B4A186021460B4805F0A8FD5A
:101770000A4B0B4A186021460A4805F0A1FD0A4BA6
:10178000186005F083FDFEE7C42A00200418020853
:10179000C82A00201C180208A1120008D02A002024
:1017A000C8170208EB050008BC2A002070477047E4
:1017B0007FB5094B8DF817201B6802930DF11702B6
:1017C0000123009201930A460146044804F042F8BE
:1017D00007B05DF804FB00BF0C0000201C2B0020AC
:1017E0007FB500238DF81730084B1B6802930A461B
:1017F00001230DF11701009101930146044804F003
:10180000B9F89DF8170007B05DF804FB0C00002044
:101810001C2B00201FB5084C24680092CDE9013430
:101820000A4601230146054804F0A4F8003818BF11
:10183000012004B010BD00BF0C0000201C2B0020B4
:1018400003F018BB08B506480022042103F070FD20
:10185000BDE8084002480122042103F069BD00BF31
:101860000008024038B50B4D044601220A484FF4E7
:10187000005103F05DFD00220421284603F058FDCD
:101880002046FFF7FBFC28460122BDE83840042132
:1018900003F04EBD00080240000C024038B50B4D6D
:1018A000044600220A484FF4005103F041FD002293
:1018B0000421284603F03CFD2046FFF7DFFC2846C4
:1018C0000122BDE83840042103F032BD0008024087
:1018D000000C0240F7B5144E144F05460C46304636
:1018E0000022042103F024FD00224FF40051384669
:1018F00003F01EFD2846FFF7C1FC0D4B0D481B6889
:10190000224601A905F0E8F9384601224FF40051BA
:10191000019C03F00DFD30460122042103F008FD77
:10192000204603B0F0BD00BF00080240000C02409A
:1019300010000020502C002003F09CBA0268034BDA
:101940009A4201D103F084BA704700BF00100040F2
:101950007047000082B00E4B00220092596C41F497
:1019600080415964596C01F48041009100990192C1
:10197000196C41F0805119641B6C03F08053019382
:10198000019B0F216FF0010002B003F099BA00BF74
:10199000003802400268094B9A4282B00BD1002302
:1019A0000193074B1A6B42F480521A631B6B03F4CA
:1019B00080530193019B02B0704700BF003002408A
:1019C0000038024007B50F4B02689A4216D1002238
:1019D000A3F5F0430192196B41F4000119631B6BED
:1019E00003F40003019305215A20019B03F068FAD8
:1019F0005A2003B05DF804EB03F094BA03B05DF82D
:101A000004FB00BF00B002402DE9F043044689B05A
:101A10001422002103A81EF085FA2268244B9A4262
:101A200043D1244C244800250095236B43F0040344
:101A30002363236B03F004030093009B0195236B46
:101A400043F001032363236B03F001030193019B24
:101A50004FF012094FF400734FF0010803270426DA
:101A600003A9CDE90339CDE90587079603F074FB97
:101A70004FF480731148079603A9CDE90339CDE9E6
:101A8000058703F069FB0295236C43F4000323648C
:101A9000236C03F400030293029B236A43F40003C4
:101AA0002362236A23F40003236209B0BDE8F083B4
:101AB000005C004000380240000802400000024084
:101AC000F0B599B004461422002107A81EF02AFAA6
:101AD00030220DEB020000211EF024FA22685E4B3A
:101AE0009A4240F0B78008230C93C023109304233C
:101AF00012930CA84FF40033159304F0C5FC08B101
:101B0000FFF726FF554B5648002400945A6C42F0CC
:101B100080625A645A6C02F080620092009A0194CA
:101B20001A6B42F020021A631A6B02F02002019233
:101B3000019A02941A6B42F001021A631A6B02F0C6
:101B400001020292029A03941A6B42F002021A6393
:101B50001A6B02F002020392039A04941A6B42F089
:101B600040021A631A6B02F040020492049A059430
:101B70001A6B42F004021A631A6B02F00402059217
:101B8000059A06941A6B42F008021A631B6B03F065
:101B90000803069302250E26069B0B964FF48063DE
:101BA00007A9CDE90735CDE9094503F0D5FA41F696
:101BB00058032C480B9607A9CDE907350927CDE92D
:101BC000094503F0C9FA032327480B9707A9CDE974
:101BD0000735CDE9094503F0BFFA4FF47063224899
:101BE0000B9607A9CDE90735CDE9094503F0B4FA0D
:101BF0004FF40C631D480B9607A9CDE90735CDE9D5
:101C0000094503F0A9FAC02319480B9607A9CDE9A5
:101C10000735CDE9094503F09FFA082315480B96CF
:101C200007A9CDE90735CDE9094503F095FA4FF449
:101C3000A0530E480B9707A9CDE90735CDE9094513
:101C400003F08AFA58202246052103F039F958207A
:101C500003F068F919B0F0BD006801400038024097
:101C6000001402400000024000040240001802403C
:101C700000080240000C024010B5044688B014224F
:101C8000002103A81EF04EF92268144B9A4223D17A
:101C900003F56843002101915A6C114842F4801207
:101CA0005A645A6C02F480120192019A02911A6BE2
:101CB00042F020021A631B6B03F020030293029B85
:101CC0004FF4607202230321CDE903230523CDE9FC
:101CD000061303A903F040FA08B010BD00500140FC
:101CE000001402402DE9F04186B0002303932B4BF2
:101CF0001C68002C4FD14FF00108C3F80080284B1E
:101D000000949A6B274842EA08029A639B6B03EAA5
:101D100008030093022703260C25009B01A94FF618
:101D20003F03CDE90137CDE9046503F015FA1E48FC
:101D3000059501A9CDE90187CDE9034603F00CFA29
:101D400048F233131948059501A9CDE90137CDE9CA
:101D5000034603F001FA4FF683731548059501A970
:101D6000CDE90137CDE9034603F0F6F94CF20373F0
:101D70001048059501A9CDE90137CDE9034603F0E7
:101D8000EBF960230C48059501A9CDE90137CDE9B0
:101D9000034603F0E1F906B0BDE8F081A82C00206D
:101DA00000380240001402400008024000180240BF
:101DB00000100240000C02400004024030B5014611
:101DC00089B00022362003F07BF8362003F0AAF811
:101DD0000025154B02951A6C144C42F010021A643F
:101DE0001B6C03F01003029301A903A8029B04F0EB
:101DF0002DFB04F01BFB0E4B236040F2E733E36046
:101E000040000C4BB0FBF3F00138606020462561C8
:101E1000A56005F04DF920B9204605F003F809B09A
:101E200030BD0120FBE700BF00380240AC2C002091
:101E30000010004040420F007047FEE7FEE7FEE75B
:101E4000FEE77047014805F02BB800BFAC2C00201E
:101E5000014803F0C9BF00BF742B0020014803F004
:101E6000ADB800BFDC2A00200120704708B51DF086
:101E7000FFFF162303604FF0FF3008BD08B51DF0CB
:101E8000F7FF16230360FEE770B50D4614460E46B5
:101E9000731B9C4201DC204670BDAFF3008006F846
:101EA000010BF5E770B50D4614460E46731B9C42B8
:101EB00001DC204670BD16F8010BAFF30080F5E79A
:101EC0004FF0FF3070474FF400534B6000207047D5
:101ED00001207047002070470A4A116808B5034680
:101EE00009B9094911601068694603448B4206D953
:101EF0001DF0BEFF0C2303604FF0FF3008BD1360E0
:101F0000FCE700BFF42C0020A03E0120704708B57C
:101F1000072925D8DFE801F004080C1014181C204C
:101F200001F076FE006808BD01F072FE4068FAE735
:101F300001F06EFE8068F6E701F06AFEC068F2E725
:101F400001F066FE0069EEE701F062FE4069EAE733
:101F500001F05EFE8069E6E701F05AFEC069E2E743
:101F60000020E0E710B5042104461DF020FF2046C4
:101F700010BD000000487047541802080620704742
:101F800013B5002451B1036801948DF8034001AAF0
:101F90009C680DF10303A04702B010BD0846FBE7A3
:101FA000408970478089704780887047837980882E
:101FB000184480B27047C07900F07F007047C07944
:101FC000C0097047704710B5082104461DF0EFFEA8
:101FD000204610BD7047704700F596730868496841
:101FE00003C37047704770474160704770470000F7
:101FF000064BC0F848310023C0F84C3100F5A073FF
:10200000C0F84401C0F83C31704700BFB12000085F
:102010000123037270477047704710B4C26841686B
:102020005410034601EB6200D20748BF0A599B686F
:102030005DF8044B48BFD358184743682BB18368F9
:102040002BB9C06800F001007047184670470120A6
:10205000704710B50C2104461DF0A9FE204610BDA6
:1020600010B5102104461DF0A2FE204610BD10B58B
:102070004FF4AC7104461DF09AFE204610BD08B521
:102080000EF080F8BDE808400EF05CBC10B50446C8
:10209000D0F83C0158B10368DB68984738B1D4F8F0
:1020A0003C0103689B6898470023C4F83C3110BD8D
:1020B0002DE9F14FD0E9545A0746A86803681B6A16
:1020C000984740F20B43984205D8454B454AA32117
:1020D00045481DF09BFE686803681B6A98470F28F7
:1020E00003D8424B3F4AA421F2E7E86803681B6A21
:1020F00098470B2803D83E4B3A4AA521E8E7DFF87A
:10210000F8900EF03FF80EF07FF8D9F8000010B10B
:102110000368DB689847D9F8000010B103681B68B2
:102120009847DFF8D880D8F8000010B103685B69E1
:102130009847D7F8380110B103685B689847D8F81A
:10214000000010B103681B689847D7F8380110B138
:1021500003689B689847E868036800215B6A9847B2
:102160004FF0000B234B03600446C0F804B080F826
:1021700008B0A868036859465B6A9847064601F0AC
:102180006DFE6868036859465B6A984731460546A4
:1021900001F08CFDC9F80040C7F83851C8F800605C
:1021A000E5B12B1DCAF800303368C5F808A03046E9
:1021B000DB68F56398472B6828461B6898472146DB
:1021C00030460FF0C9FC236820461B6998472368F6
:1021D0005B69204601B0BDE8F04F18472B46E1E7A8
:1021E000DC1802086A190208681A0208AF1A020805
:1021F000521B0208681D0208383C0120343C0120B3
:102200002DE9F14FD0E9545A0746A86803681B6AC4
:10221000984741F6C703984205D8454B454AA32144
:1022200045481DF0F3FD686803681B6A98470F284E
:1022300003D8424B3F4AA421F2E7E86803681B6ACF
:1022400098470B2803D83E4B3A4AA521E8E7DFF828
:10225000F8900DF097FF0DF0D7FFD9F8000010B1FE
:102260000368DB689847D9F8000010B103681B6861
:102270009847DFF8D880D8F8000010B103685B6990
:102280009847D7F8380110B103685B689847D8F8C9
:10229000000010B103681B689847D7F8380110B1E7
:1022A00003689B689847E868036800215B6A984761
:1022B0004FF0000B234B03600446C0F804B080F8D5
:1022C00008B0A868036859465B6A9847064601F05B
:1022D00023FE6868036859465B6A9847314605469D
:1022E00001F000FEC9F80040C7F83851C8F8006096
:1022F000E5B12B1DCAF800303368C5F808A0304698
:10230000DB68F56398472B6828461B689847214689
:1023100030460FF021FC236820461B69984723684C
:102320005B69204601B0BDE8F04F18472B46E1E756
:10233000DC180208F51B0208681A0208AF1A020826
:10234000521B0208681D0208383C0120343C012061
:10235000F8B5044617460E460DF070FF104B0025E9
:10236000C4E954760F4E1C60C4E952550E4B3068D8
:1023700023600E4BC4E95035036801219B68C4E912
:102380004E559847284601F0F7FB336893F87620BE
:102390000AB1D86C00B9986816F0DBFA2046F8BD8F
:1023A000443C0120F03B01201C1D0208041D0208D2
:1023B000064BC0F848310023C0F84C3100F5A0733B
:1023C000C0F84401C0F83C31704700BF012200084A
:1023D000064BC0F848310023C0F84C3100F5A0731B
:1023E000C0F84401C0F83C31704700BFB12000087C
:1023F000006A7047406A704770478B8880690A6836
:10240000DB0A50F823001044704710B5C2B1137BAB
:10241000B3B1547BD27A240204F4E0641443C26959
:1024200098B202EB840213888B4202D192F9020027
:1024300010BD05D8013880B204320028F3D1F7E787
:102440000020F5E710B5282104461DF0B0FC204619
:1024500010BD000030B589B00446BDF85050069557
:10246000BDF84C5005959DF8405004959DF83C50A2
:1024700003959DF8385002959DF8345001959DF8CC
:10248000305000950EF0DCFE064B2360119BA361DB
:10249000129BE361159B2362169B6362204609B081
:1024A00030BD00BF8C1D020800207047818070473E
:1024B000C180704701817047418170477047704704
:1024C00070477047704710B4C4880368121B848833
:1024D0005B6D091B12B25DF8044B09B218474FF649
:1024E000FF7383814FF0FF3303621368C361106091
:1024F00070477047704770477047704790F82520C5
:102500001AB190F8242002B11860704730B5036802
:10251000018185B06D460146D3F8843004462846D3
:10252000984795E807003C3484E8070005B030BDC3
:1025300030B50368418185B06D460146D3F88430DB
:1025400004462846984795E807003C3484E807008D
:1025500005B030BD0022028042808280C280704778
:1025600080F83610704770B5036804461B6B15463B
:1025700098472368294620465B6EBDE8704018479F
:102580000020704700207047806C7047704770478C
:102590007047704770477047704730B4C2684468EE
:1025A0005510034604EB6200D20748BF62599B688E
:1025B00030BC48BFD358184743682BB183682BB948
:1025C000C06800F00100704718467047012070474E
:1025D00030B4C26844685510034604EB6200D20769
:1025E00048BF62599B6830BC48BFD35818474368FE
:1025F0002BB183682BB9C06800F001007047184602
:10260000704701207047A0F84C107047B0F84C009C
:10261000704710B55C2104461DF0C9FB204610BD73
:1026200010B54C2104461DF0C2FB204610BD10B56C
:10263000102104461DF0BBFB204610BD10B5102133
:1026400004461DF0B4FB204610BD10B54FF4427196
:1026500004461DF0ACFB204610BD90F8252012B1B9
:1026600003685B6918477047036870B55E6B124B6F
:102670001B6804468DB22BB9104B114A6C211148CE
:102680001DF0C4FB1049828D0988914203D80F4B7D
:102690000B4A6D21F3E713F812200D4B1B6853F81A
:1026A00022000368DB6A9847281A01B233462046A5
:1026B000BDE87040184700BF483C0120DC1D0208FF
:1026C0001E1E0208591E02084C3C0120A01E0208D2
:1026D000503C012013B59830884212D10A4C0DF0BD
:1026E00051FDFFF765FE206804F07FFF012808D840
:1026F000064B20681B68019300220A2301A904F0FD
:1027000015FF02B010BD00BFC82A0020CC2A00204F
:1027100000224FF0FF31C0E900218260704770B5A0
:10272000036804461B6B15469847236829462046D4
:102730005B6BBDE87040184770B504461D46BDF997
:102740001060FFF7ECFF2368294620469B6B9847F3
:10275000236831462046DB6BBDE870401847000017
:102760000022C0E90122C0E90322C0E90522C0E934
:1027700007224FF480728284014A0260704700BFD2
:10278000E81E02081B4B73B51B88018F8B4206465F
:102790002BD9194B1B682BB9184B194A19486C21B6
:1027A0001DF034FB13F81120174B1B6853F822500F
:1027B000164B186801F01CFA2B68019001469B6AC1
:1027C000284698472B6801991B6C04462846984771
:1027D0002B6801995B6A14FB00F428469847E4B221
:1027E000044486F8454002B070BD002380F84530AF
:1027F000F9E700BF4C3C0120483C0120DC1D0208E9
:102800001E1E0208591E0208503C0120543C0120A3
:1028100010B52622044600211DF084FB2046FFF758
:102820009FFF0A4B23600A4BA3624FF6FF73A385F9
:102830004FF47F020023C4E90C324FF0FF32C4E9A9
:1028400010232387E363204610BD00BFDC2B020862
:10285000D418020810B50446FFF7DAFF024B2360D4
:102860000023A364204610BD501F02082DE9F04F3D
:102870002DED068B04468BB0A14600260EF0C0FF5E
:10288000E74BE66349F8403B3146262248461DF0B7
:1028900049FB4846FFF764FF04F16C07E14B2364F2
:1028A0004FF0FF082622314684F866804FF6FF7508
:1028B000A6663846ADF820501DF034FB3846FFF7C9
:1028C0004FFFD94BE366BDF82030A4F8923008A939
:1028D00084F8948038460AF050FB04F198031846B7
:1028E00008EE103A0AF070FC04F1E00308A904F5C0
:1028F000867B184608EE903A04F5AC7AADF8205085
:1029000009F0E8FB5846FFF7A5FF5046FFF780FFA8
:10291000C64BC4F8583104F5DA7304F5007818464C
:1029200084F8A061A4F8A261A4F8A461C4F8B0611D
:1029300009EE103AFFF78EFF4046FFF78BFF04F5D4
:102940001373184609EE903AFFF784FF04F52673D7
:1029500018460AEE103AFFF77DFFB54BC4F8E46263
:10296000C4E9BA34B34BC4E9BC36B34BC4E9BE3492
:10297000B24BC4E9C0364FF4A073009332463146DF
:102980004846F023FFF7D8FE4FF07F433246A36658
:1029900031463846FFF7C3FE4FF0050308A9384615
:1029A000ADF820300AF0E9FA18EE100ADC222321F3
:1029B000FFF7B5FE4FF0010108AA18EE100AADF8B6
:1029C000201007A9ADF81C600AF035F9092318EEAC
:1029D000100AA4F8D030FFF7D5FE994BC4F8D430D4
:1029E00003F50023C4F8D83008AD04F53A734FF06E
:1029F0000400C4F8C030ADF82000294618EE900A53
:102A00000AF0BBFA352318EE900A009350222523D2
:102A10006621FFF791FE18EE900A314609F021FB7E
:102A2000242258463121FFF77AFE4FF07F43C4F845
:102A30003C31D4F80C31A4F8406102AD5946284627
:102A4000D3F88430984795E807000DF1200C04F581
:102A5000A47383E8070061467A4B08935846ADF8A3
:102A600024600AF08BF850460A221521FFF757FE22
:102A70004FF07F42C4F8882151462846A4F88C6163
:102A800009F0FAFD95E8070004F5CA7383E807002A
:102A90004FF00502ADF8242008AA6A4B08931146AE
:102AA00050460AF06BF819EE100A85226321FFF7F1
:102AB00036FED4F8B431A4F8E8614FF07F4219EE45
:102AC000101AC4F8E4212846D3F88430984795E8D2
:102AD000070004F5F87383E8070008AA4FF0040024
:102AE000584BADF82400114619EE100A08930AF06D
:102AF00045F84046A0222321FFF711FED4F800320A
:102B0000A4F834624FF07F42C4F830224146284690
:102B1000D3F88430984795E8070004F50F7383E8ED
:102B2000070008AA474B0893114603234046ADF817
:102B300024300AF023F819EE900AA0226321FFF74F
:102B4000EEFDD4F84C32A4F880624FF07F4219EECB
:102B5000901AC4F87C222846D3F88430984795E828
:102B6000070004F5227383E8070008AA354B089391
:102B700019EE900A02231146ADF8243009F0FEFF49
:102B80001AEE100AA022A121FFF7C9FDD4F898324D
:102B9000A4F8CC624FF07F421AEE101AC4F8C82293
:102BA0002846D3F88430984795E8070004F5357334
:102BB00083E807004FF00101224BADF82410251DDA
:102BC0001AEE100A08A9089309F0D8FF49462846CA
:102BD00006F054FF3946284606F050FF18EE101A4A
:102BE000284606F04BFF18EE901A284606F046FFDE
:102BF0005946284606F042FF5146284606F03EFF59
:102C000019EE101A284606F039FF4146284606F00C
:102C100035FF19EE901A284606F030FF284613E0DB
:102C2000A82002086C2C0208D42C0208E01F02081D
:102C300078200208D5260008902002089125000877
:102C40000000F7FFD41802081AEE101A06F016FF5B
:102C500020460BB0BDEC068BBDE8F08F90F84830F5
:102C600070B50446002B49D0B0F84A00B4F84C3097
:102C7000013080B29842A4F84A003FD3B4F85060C3
:102C8000B4F85220656DC01A921BB4F84E3012B2DF
:102C9000002180B2A84794F83620304405B2AA42F9
:102CA00083B205D025BB204609F07CFE84F836505F
:102CB000B4F84C30B4F84E10B4F84A200B449A42A1
:102CC0001CD3002384F84830A4F84E300DF05AFA93
:102CD00021460DF083FAA06D80B10368DB68984748
:102CE00060B1A06D036821469B68BDE8704018473D
:102CF00084F83630204609F055FED9E770BD08B596
:102D0000FFF7ACFF08BD0000D0F8E4320133642BBC
:102D100070B50446C0F8E4322BD190F8A0310026FB
:102D2000C0F8B06100F5AC7523B90DF02BFA294657
:102D30000DF02EFA94F88E31A4F8A831FF23A4F8F0
:102D4000AA311E23A4F8A6310A4BC4F8AC310123E2
:102D500084F8A031D4F8A431A4F8A26113B92846AC
:102D6000FFF77CFF04F53E73C4F8B0310023C4F8CC
:102D7000E43270BDBF1B0108002070478B88838040
:102D8000012070477047806C7047C06C7047704777
:102D900070477047704730B4C268446855100346A6
:102DA00004EB6200D20748BF62599B6830BC48BF41
:102DB000D358184743682BB183682BB9C06800F01B
:102DC00001007047184670470120704710B5502128
:102DD00004461CF0ECFF204610BD10B5102104463F
:102DE0001CF0E5FF204610BD10B541F254510446D9
:102DF0001CF0DDFF204610BD08B500F2A463994227
:102E000005D10DF0BFF9BDE80840FFF7E1BA00F2C7
:102E1000EC60814205D10DF0B5F9BDE80840FFF73F
:102E2000C7BA08BD38B5262204460D4600211DF05C
:102E300079F82046FFF794FC064B23602B88E38447
:102E4000FF23204684F8283029460AF096F82046C9
:102E500038BD00BFD42C020870B50023124E838009
:102E6000124B0360336893F8762005460AB1D86C9C
:102E700000B998680368DB6A98473368B0FA80F451
:102E8000D86C640930B10368DB6A9847002808BF32
:102E900044F001042CB9064B064A07482C211CF0CB
:102EA000B5FF284670BD00BFF03B0120D8210208C5
:102EB000D4200208322102086B2102082DE9F04FCC
:102EC0002DED108B044695B00EF09AFC224600259D
:102ED000E54BE56342F8403B08EE102A29462622DE
:102EE00018EE100A1DF01EF818EE100AFFF738FC55
:102EF000DE4B2364FF2384F8663004F16C034FF645
:102F0000FF7612A91846A5660AEE103AADF8486099
:102F1000FFF788FF04F1980312A918460AEE903AC9
:102F2000ADF84860FFF77EFF04F1C40312A918460C
:102F300008EE903AADF8486009F0CCF804F1F003DF
:102F400012A918460BEE103AADF84860FFF76AFF79
:102F500004F58E7312A918460BEE903AADF848604E
:102F6000FFF760FF04F5A47312A918460CEE103A9F
:102F7000ADF84860FFF756FF04F5BA7312A918467A
:102F80000CEE903AADF84860FFF74CFF04F5D073B3
:102F900012A918460DEE103AADF84860FFF742FF4F
:102FA00004F5E67312A918460DEE903AADF84860A4
:102FB000FFF738FF04F5FC7312A918460EEE103A1D
:102FC000ADF84860FFF72EFF04F5097312A9184603
:102FD0000EEE903AADF84860FFF724FF04F5147345
:102FE00012A918460FEE103AADF84860FFF71AFF25
:102FF00004F51F7312A918460FEE903AADF8486019
:10300000FFF710FF04F52A7312A918460393ADF8D1
:103010004860FFF707FF04F5357312A918460493BB
:10302000ADF84860FFF7FEFE04F540731846904F78
:10303000079307F067FF04F55273184607F1240859
:103040000B93FFF709FF04F55773C4F84873C4F8EE
:1030500050831846C4F85453089307F053FF04F5FF
:10306000697318460C93FFF7F7FE04F56E73C4F806
:10307000A473C4F8AC831846C4F8B053099307F09E
:1030800041FF04F5806318460D93FFF7E5FE04F257
:103090001443C4F80074C4F808841846C4F80C54E7
:1030A0000A9307F02FFF04F25C4304F58E6B184679
:1030B0000E93FFF7D1FEC4F85C74C4F86484C4F8BE
:1030C0006854584608F0EAFD04F59C6318460F93CF
:1030D000FFF7C2FEC4F8E88404F2F448C4F8E074D0
:1030E000C4F8EC54404606F0A9FA04F5C16318464A
:1030F0000593FFF78DFB5F4BC4F8083604F2546369
:103100001846C4F850560693FFF782FB5A4BC4F892
:10311000543604F2A4631846C4F89C56C4F8A0566A
:1031200009EE103A0AF050F804F2EC63184609EE82
:10313000903A0AF049F8514BC4F83437504BC4F870
:103140003C374FF4A07A4FF4616104F24470C4F844
:103150003847C4F840570AF0F3FE18EE100AF0237F
:103160002A462946CDF800A0FFF7E6FA4FF07F4344
:10317000A366444A1AEE100A2946FFF7D0FA05273B
:103180001AEE100A12A9ADF8487009F0F6FE2A46A8
:103190001AEE900A2946FFF7C2FA1AEE900A12A90F
:1031A000ADF8487009F0E9FE042318EE900A12A960
:1031B000ADF8483009F0E1FE352340F2031218EE75
:1031C000900A009387212523FFF7B6FA18EE900A9C
:1031D000294608F046FF6FF07C021BEE100A0C2116
:1031E0000327FFF79CFA1BEE100A12A9ADF84870EE
:1031F00009F0C3FE6FF02B021BEE900A0C21FFF7C3
:103200008EFA1BEE900A12A9ADF8487009F0B5FECF
:103210006FF053021CEE100A0C21FFF780FA1CEE2F
:10322000100A12A9ADF8487009F0A7FE6FF02B0242
:103230001CEE900AC821FFF772FA1CEE900A12A940
:10324000ADF8487009F099FE6FF02B021DEE100AE0
:103250008C21FFF764FA1DEE100A12A9ADF8487030
:1032600009F08BFE10E000BFA02202086C2C0208BF
:10327000A4280208501F0208F82102088822020828
:10328000F92D0008C0FEFFFF6FF02B021DEE900A23
:103290004E21FFF744FA1DEE900A12A9ADF84870CE
:1032A00009F06BFE6FF051021EEE100A4E21FFF77F
:1032B00036FA1EEE100A12A9ADF8487009F05DFE4C
:1032C0006FF051021EEE900A8C21FFF728FA1EEED5
:1032D000900A12A9ADF8487009F04FFE6FF0510244
:1032E0001FEE100AC821FFF71AFA1FEE100A12A9E2
:1032F000ADF8487009F041FE6FF07E021FEE900AB3
:10330000C821FFF70CFA1FEE900A12A9ADF8487019
:1033100009F033FE6FF07C0203988C21FFF7FFF970
:103320000398ADF8487012A909F027FE6FF07C02EF
:1033300004984E21FFF7F3F90498ADF8487012A9EC
:1033400009F01BFE08230798009340F21B12514618
:10335000FFF7F2F94FF43453C4F83C330B9BC4F835
:10336000283380274FF0FF3908230898009340F254
:103370001B125146C4E9CB77C4F83473C4F84053E8
:10338000C4F83853C4F85493A4F85893FFF7D4F909
:103390004FF43453C4F898330C9BC4F88433082397
:1033A0000998009340F21B125146C4E9E277C4F831
:1033B0009073C4F89C53C4F89453C4F8B093A4F821
:1033C000B463FFF7B9F94FF43453C4F8F4330D9BE9
:1033D000C4F8E03308230A98009340F21B125146C8
:1033E000C4E9F977C4F8EC73C4F8F853C4F8F0539F
:1033F000C4F80C94A4F81064FFF79EF94FF434530A
:10340000C4F850340E9BC4F83C341E230093FD22B4
:103410003C237A215846C4F84074C4F84474C4F874
:103420004874C4F85454C4F84C54C4F86894A4F8CC
:103430006C64FFF781F9A34BC4F8EC344FF4784384
:103440004FF47072A4F8F0340F9BC4F8983411460E
:10345000584608F039FD2A462946584608F03FFDEF
:10346000D4F8AC34402B05D04023C4F8AC345846D3
:1034700008F034FC5846012108F03CFD4046062285
:103480000B21FFF74CF9002214230025009311466D
:103490004046362306F0B3F864222B4600952946B1
:1034A000404606F02DF940468749884F06F01CF843
:1034B0002946404606F01EF80A2312A940461297F4
:1034C000ADF84C3006F035F8022312A94046ADF8AD
:1034D000483006F065FA40463C2106F035F84FF0DA
:1034E000FF36059806224FF07F49A321FFF717F911
:1034F0004FF0060A0598C4F83896A4F83C56C4F86C
:103500004456C4F84C5612A9C4F848661297ADF850
:103510004CA009F033FB524606985321FFF7FFF801
:103520000B230698C4F88496A4F88856C4F89056DD
:10353000C4F8985612A9C4F89466ADF84C301297A6
:1035400009F01CFB19EE100A40F2A9122321FFF723
:10355000E6F84FF0010912AA11A919EE100AADF808
:103560004450ADF8489009F066FB0823A4F8DC3617
:1035700019EE100A04F23477FFF704F919EE900AF5
:10358000C4F8E066C4F8E466C4F8CC764FF4AE72D2
:103590002321FFF7C4F812AA11A919EE900AADF879
:1035A0004450ADF8489009F046FB0723A4F82437AF
:1035B000251D19EE900AFFF7E5F818EE101A2846B7
:1035C000C4F82867C4F82C67C4F8147706F056FAD4
:1035D0001AEE101A284606F051FA1AEE901A2846EA
:1035E00006F04CFA18EE901A284606F047FA1BEE41
:1035F000101A284606F042FA1BEE901A284606F0EA
:103600003DFA1CEE101A284606F038FA1CEE901A05
:10361000284606F033FA1DEE101A284606F02EFA58
:103620001DEE901A284606F029FA1EEE101A2846BA
:1036300006F024FA1EEE901A284606F01FFA1FEE36
:10364000101A284606F01AFA1FEE901A284606F0BD
:1036500015FA0399284606F011FA0499284606F04F
:103660000DFA0799284606F009FA0899284606F047
:1036700005FA0999284606F001FA0A99284606F043
:10368000FDF95946284606F0F9F94146284606F064
:10369000F5F90599284606F0F1F90699284606F04D
:1036A000EDF919EE101A284606F0E8F9284619EE49
:1036B000901A06F0E3F9204615B0BDEC108BBDE87A
:1036C000F08F00BF0000FFFF00FF33FFD418020897
:1036D0007047000030B5154D2C78BFF35B8F14F0A8
:1036E00001048DB01ED128461CF063FBD0B13F23EE
:1036F00007930F4B06930F4B0F4910480894012274
:10370000CDE904430423CDE90132CDE909440A237C
:1037100003940094FEF79EFE09481CF095FB284692
:103720001CF053FB05480DB030BD00BFF82C002045
:10373000784802089C480208F8440208FC2C002043
:10374000D13600087047000030B5164D2C78BFF315
:103750005B8F14F001048DB020D128461CF029FBAA
:10376000E0B13F230793104B0693104B05930123C1
:10377000CDE90333029304220323CDE900320C493F
:103780000C4808940D232522CDE90944FEF762FE7A
:1037900009481CF059FB28461CF017FB05480DB0E2
:1037A00030BD00BF242D00207C480208A04802083C
:1037B00008450208282D0020453700087047000002
:1037C00030B5154D2C78BFF35B8F14F001048DB02C
:1037D0001ED128461CF0EDFAD0B13F2307930F4BC2
:1037E00006930F4B0F49104808940122CDE904437A
:1037F0000423CDE90132CDE9094414230394009454
:10380000FEF728FE09481CF01FFB28461CF0DDFAD5
:1038100005480DB030BD00BF502D0020844802087F
:10382000A448020810470208542D0020BD370008A4
:103830007047000030B5154D2C78BFF35B8F14F046
:1038400001048DB01ED128461CF0B3FAD0B13F233D
:1038500007930F4B06930F4B0F4910480894012212
:10386000CDE904430423CDE90132CDE909442823FD
:1038700003940094FEF7EEFD09481CF0E5FA284693
:103880001CF0A3FA05480DB030BD00BF7C2D002010
:1038900088480208A848020820470208802D002016
:1038A000313800087047000030B5154D2C78BFF353
:1038B0005B8F14F001048DB01ED128461CF079FAFC
:1038C000D0B13F2307930F4B06930F4B0F4910487E
:1038D00008940122CDE904430423CDE90132CDE966
:1038E0000944102303940094FEF7B4FD09481CF02A
:1038F000ABFA28461CF069FA05480DB030BD00BF90
:10390000A82D00208C480208AC4802083047020865
:10391000AC2D0020A53800087047000030B5154DCB
:103920002C78BFF35B8F14F001048DB01ED12846B4
:103930001CF03FFAD0B13F2307930F4B06930F4B78
:103940000F49104808940122CDE904430423CDE92E
:103950000132CDE90944142303940094FEF77AFD63
:1039600009481CF071FA28461CF02FFA05480DB0E2
:1039700030BD00BFD42D002090480208B048020896
:1039800040470208D82D0020193900087047000070
:1039900030B5164D2C78BFF35B8F14F001048DB059
:1039A00020D128461CF005FAE0B13F230793104BC5
:1039B0000693104B104911480894CDE904430122A5
:1039C0000423CDE90132052300930C221623CDE90F
:1039D00009440394FEF73EFD09481CF035FA2846D9
:1039E0001CF0F3F905480DB030BD00BF002E0020DB
:1039F00094480208B448020850470208042E0020E8
:103A00008D3900087047000030B5154D2C78BFF394
:103A10005B8F14F001048DB01FD128461CF0C9F94A
:103A2000D8B13F2307930F4B06930F4B0593012308
:103A3000CDE9034302930423CDE900430B490C482D
:103A400008941E230922CDE90944FEF703FD094825
:103A50001CF0FAF928461CF0B8F905480DB030BD45
:103A60002C2E002098480208B8480208F84702089F
:103A7000302E0020053A00080020704700207047D3
:103A80000EB403B503AB002153F8042B01930DF0E2
:103A90002BFA02B05DF804EB03B070470CB407B525
:103AA00004AB53F8042B01930DF01EFA03B05DF83C
:103AB00004EB02B07047000010B504460EF006F9A2
:103AC000E38E04EB43035884636C5BB3238F2BB901
:103AD000174B184AC02118481CF098F910B320461B
:103AE0000FF0F1F9238F012B03D8144B144AC52191
:103AF000F1E7E28E531C9BB2092B194688BFA3F154
:103B00000A0104EB410140F63F10498C814209D182
:103B10000A2B04EB420228BF002304EB4303508C22
:103B2000588451842046BDE810400FF0CFB800BF44
:103B3000CC220208D522020880230208CA230208E8
:103B4000D823020810B504460FF087F82046BDE8D8
:103B500010400EF0B7B810B586B002AC84E806008D
:103B60001A460AAB05930193099B00932146089BD3
:103B70000BF0FAFD06B010BD38B518BB124B134858
:103B80001B681349B3B11A689C681A4402605A68EA
:103B90001A440A601C440F4B00221A8000F038F8C7
:103BA000054600F033F80C4B1C600C4B1D600C4BB1
:103BB000188007E00B4B03600B4B0B600B4B1C6832
:103BC000002CE8D138BD00BF582E00205C2E00200C
:103BD000602E0020642E0020483C0120503C012033
:103BE0004C3C0120EC480208BC480208DC490208B1
:103BF000044B1B6853F82100034B1B6803EB400088
:103C0000704700BF602E00205C2E00200C20704703
:103C100000487047682E002010B5FFF7D1FD0C4C0E
:103C20002060FFF707FE6060FFF754FDA060FFF71C
:103C30008BFDE060FFF7E8FE2061FFF76FFE60613B
:103C4000FFF7A6FEA061FFF72FFEE06110BD00BFE9
:103C5000682E0020704710B54FF4AC7104461CF07C
:103C6000A6F8204610BD10B50446D0F8540100F067
:103C70002AF92046BDE810400CF032B910B50446D0
:103C8000FEF766FB014B2360204610BDB4240208FA
:103C9000704704387047704710B5102104461CF077
:103CA00086F8204610BDA0F10400F5E710B500220B
:103CB0008260044AC16002F108042032046042605C
:103CC00010BD00BFF824020870477047FEF75FBCC4
:103CD000F7B5594F594D0446002638688DF80360F2
:103CE00003F083FCA8B1D4E9C4329A4211D94FF051
:103CF000FF33386832460DF1030103F047FC9DF8AD
:103D00000330522B40F08F802B68C4F814630133CA
:103D10002B604B4E306803F068FC012807D82B68F5
:103D2000019330680A23002201A903F0FFFBD4E9C4
:103D3000C42393429CBF0133C4F81433414B424A1D
:103D40001B6804F556760A2130460FF06BFEC4F866
:103D5000546104F5867008F0F1FED4F80C232B684A
:103D6000B3FBF2F102FB1133C63304F56A7654F863
:103D70002330354A0A2130460FF054FEC4F8FC6166
:103D800004F5DA7008F0DAFED4F80C232B68B3FBE4
:103D9000F2F102FB1133CA3304F5747654F8233080
:103DA000294A0A2130460FF03DFEC4F8486204F566
:103DB000007008F0C3FED4F80C232B68B3FBF2F1BB
:103DC00002FB1133CE3304F5797654F823301E4AC2
:103DD0000A2130460FF026FEC4F8946204F51370F1
:103DE00008F0ACFED4F80C232B68B3FBF2F102FB15
:103DF0001133D23304F57E7654F82330124A0A2167
:103E000030460FF00FFE04F52670C4F8E06208F0AB
:103E100095FED4F808330133C4F80833201D0DF0A3
:103E200061F903B0F0BD4C2B7FF473AF2B68C4F87D
:103E30001463013B6CE700BFC42A0020CC2A002099
:103E4000C82A0020702B00202025020810B540F25F
:103E50000C4104461BF0ABFF204610BD70B5044674
:103E6000154DFEF703FD154B236004223223C4E9F0
:103E7000C323C4F8143395E80F0004F5467686E8AA
:103E80000F0005F110030FCB04F54A7686E80F000A
:103E900005F120030FCB04F54E76303586E80F0090
:103EA00095E80F0004F5527686E80F000023C4F869
:103EB0000833204670BD00BF840F02082C2502087D
:103EC000002202607047704770470438704770479F
:103ED00010B5102104461BF06AFF204610BDA0F16A
:103EE0000400F5E710B500228260044AC16002F1C7
:103EF000080420320460426010BD00BF582502084B
:103F000070477047FEF744BF10B541F6C80104463C
:103F10001BF04DFF204610BD2DE9F04106468F4DA8
:103F2000FEF7CCFF8E4B336095E80F0006F580540A
:103F300004F5B56787E80F0005F110030FCB04F512
:103F4000B76787E80F0005F120030FCB04F5B967C9
:103F500087E80F000C2384F8F03506F1F003C4F86D
:103F6000F43506F58E73C4F8F83506F5A473C4F875
:103F7000FC3506F5BA73C4F8003606F5D073C4F8FC
:103F8000043606F5E673C4F8083606F5FC73C4F883
:103F90000C3606F50973C4F8103606F51473C4F828
:103FA000143606F51F73C4F8183606F52A73C4F8DC
:103FB0001C3605F1300E06F53573C4F82036BEE820
:103FC0000F00002704F5C66CC4F82476C4F82876E0
:103FD000C4F82C76ACE80F00BEE80F00ACE80F0088
:103FE0009EE80F008CE80F003946302206F5B350EA
:103FF0001BF098FF3946302204F5D2601BF092FF87
:104000003946302206F5B6501BF08CFF05F16003EF
:104010000FCB04F5DE6C8CE80F000123C4F80437E5
:104020003223C4F80C37C4F8143706F21443C4F82A
:104030001C3706F56E73C4F8203706F557734FF03A
:10404000C808C4F8243706F54073C4F82837394641
:10405000C4F80887C4F81077C4F81877C4F82C7728
:10406000C4F83077C4F83477102204F5E7601BF009
:1040700059FF3946102204F5E9601BF053FF424610
:1040800005F1700104F5EB601BF03EFF0A2305F516
:104090009C7EC4F82438BEE80F0004F6280CACE877
:1040A0000F00BEE80F00ACE80F009EE803002822D6
:1040B0008CE80300394604F505601BF033FF05F575
:1040C000B07EBEE80F0004F6780CACE80F00BEE846
:1040D0000F00ACE80F009EE8030005F5C4758CE8FE
:1040E00003000FCD06F5C55CACE80F000FCDACE8C2
:1040F0000F0095E803008CE803001A49C4F8A47582
:104100000B68C4F8E47503F2CB325D2092FBF0F546
:1041100000FB1522A4F82028FA1A02F0030203F08B
:10412000030358BF53420B6006EB830303F5805330
:104130003046D3F8A825C4F8DC25C4F8D825D3F830
:10414000B825C4F8E025D3F8C835C4F8E8356423A9
:10415000C4F8EC35C4F80077BDE8F081C40F02085C
:1041600088250208CC2A002010B5BDF90C00BDF945
:1041700010400B44834211DBBDF9143003449942D3
:104180000CDCBDF908301344A34207DBBDF918006D
:1041900020448242CCBF0020012010BD0020FCE75B
:1041A000D9420BD4F02909DCBDF90030DA4205D43C
:1041B000B2F5A07FD4BF00200120704701207047D6
:1041C00030B500F58054521AB4F8203803F6AC35F7
:1041D000013330F81500A4F82038B0FBF2F302FBED
:1041E0001300084430BD00002DE9F04F00F5805861
:1041F0008FB0D8F8A415D8F8EC35B1FBF3F203FB77
:104200001211044600295ED10722FFF7D9FF04F5F9
:10421000B153043313F8017B002F40F0A1814342D6
:1042200003F0030300F0030604EB010258BF5E42F3
:1042300041F22463012004EB8101D05401F5805543
:1042400006F2BC52D5F8F40534F9221003681B6B52
:104250009847D5F8F40503686FF027015B6B984722
:104260006FF02703C5F83036632239462046FFF742
:10427000A7FF0A2390FBF3F202FB1300042822DCC1
:10428000002163222046FFF79BFF0B1A03F0030374
:1042900000F0030058BF58428642F1D0012300F2DB
:1042A000BC50C5F8603654F82030C5F8C0364FF41D
:1042B0007A722046FFF784FFA02390FBF3F202FB03
:1042C0001300C5F8900604F5B9530C33069304F5B2
:1042D000B85704F5B953069D0A951C371033099356
:1042E0003E464FF0030915F8013B012B0FD1306812
:1042F000B0F90830B0F90620B0F90410B0F90A009E
:1043000000902046FFF74CFF08B105F8019C099B7F
:104310009D4206F10406E6D104F5B1530433079338
:1043200004F5AF5604F5B153079D0B9514361033C1
:104330000893B246DDF81890BB4619F8013B012BF3
:1043400027D1DAF800C0DBF80000BCF90AE0B0F9C8
:104350000830B0F90620B0F90410CDF810E0BCF92F
:1043600008E0CDF80CE0BCF906E0CDF808E0BCF9B7
:1043700004C0CDF804C0B0F90A0000902046FFF751
:10438000F3FE30B14FF0020385F808314FF005031A
:104390002B70099B99450BF1040BCED12B78012B87
:1043A00024D1DAF80090B4F9CEB0B9F90A30049308
:1043B000B9F908300393B9F906300293B9F904301A
:1043C000B4F9CA20B4F9C810CDE900B32046B4F955
:1043D000CC30FFF7C9FE10B14FF003032B70B9F9D1
:1043E00006305A449A42BCBF02232B70089B013509
:1043F0009D420AF1040A9DD1DDF81CA035464FF01C
:10440000000B04F580591AF8012B032A40F0AD8007
:10441000286802686FF02701526B90476FF02703FE
:10442000EB630AF801BCD9F8D825013AC9F8D825B8
:10443000D9F8E4250132C9F8E425C5F86CB0089B29
:104440009A4505F10405DED1069DB9464FF0000AF4
:1044500015F8013B023B012B0FD8D9F80000036887
:104460004FF4A0711B6B9847D9F80000036840F225
:104470001B115B6B984705F801AC099B9D4209F144
:104480000409E5D1079B0022042113F8010B02283F
:10449000089802BF03F8011C013212B28342F4D122
:1044A00004F58053D3F8E4150A44C3F8E425D4F89E
:1044B0009C24D4F8A4540892D4F8A0240992D4F8E7
:1044C000A8246D094FEA52196A1E3A2A5CD8D3F81B
:1044D00004371D444FEA4912690104F58E6007F064
:1044E000FEFCD8F80037D8F8E025DFF8D0B3134445
:1044F0004FF4A072B3FBF2F102FB1133A3F5A072EB
:10450000C8F800374FF0000ADBF80000A4F89E203E
:10451000A4F872308DF837A003F067F8002847D070
:104520004FF0FF33DBF8000052460DF1370103F086
:104530002DF89DF83730522B34D1B4F9C830B4F986
:104540007414CA2B07DCD8F8E025520092B2134449
:104550001BB2114409B2A4F8C830A4F8741427E0BF
:1045600001310C297FF456AEADE6052A7FF467AF22
:10457000286802686FF02701526B90476FF027039D
:10458000EB630AF801BC53E73C2D05D14FF0FF3235
:10459000C3F804273B259DE7002D9BD10125C3F8D7
:1045A000045797E74C2B00F004814A2B00F0108150
:1045B00004F580580025079A12F8013B07925A1E0D
:1045C000012A01D9042B12D1D8F8E035F16B3068FB
:1045D00019440368F1635B6B09B29847F36BB3F559
:1045E000A07FC0F23181079B03F8015CF5660B9B4D
:1045F0000436B342DFD104F58055D5F81437D5F829
:104600000C2793429CBF0133C5F81437D5F81837EF
:1046100093B1D5F81027D5F8081701328A4281BF27
:104620000022C5F8102703F1FF33C5F81837D5F875
:1046300010370133C5F81037069A12F8013B06927D
:10464000012B13D13868FB6AB0F90660B0F9041089
:1046500006EB9306FB6901EB9301036809B21B6B40
:1046600098473868036831B25B6B98470A9B0437F8
:104670009F42E1D104F5C151D5F82408D5F8E435BD
:104680000831002290421AD051F8046B9E4200F289
:10469000F8804E6A002E40F0F48004EB820202F5AE
:1046A0008052D5F8E015D2F878080144C5F8E01535
:1046B000D2F8A018C5F8EC150121C2F8501804F57D
:1046C000AA5614367A4A7B4F0A2130460FF0AAF9CF
:1046D000C4F8506604F5C16008F030FAD5F8E43546
:1046E0003A68934240F2CF80734BC4F83836D5F81D
:1046F0001417D5F80C27D5F81837914200F2CA8064
:104700006D4AC4F88426D5F8E82504F5AB5608367A
:10471000D31A0A21664A30460FF084F9C4F89C6621
:1047200004F5AB561C36D5F8E835614A0A21304607
:104730000FF078F9C4F8A06604F2546008F0FEF9AE
:10474000D5F8D8656EB96423C5F8E065A4F8F236EB
:10475000AA233A68A4F8AA36D5F8E435934288BF6C
:104760003B6064235E43D5F8DC35B6FBF3F6322EAE
:1047700004F2F44040F296804FF0FF21069004F0DE
:10478000B3FE0698D5F8D835012B04D14A490690D6
:1047900004F0AAFE0698314604F0D6FED5F8A435FA
:1047A0000133C5F8A435201D0CF09CFC0FB0BDE80A
:1047B000F08FB4F9C830B4F97414002B7FF7CBAE86
:1047C000D8F8E025520092B29B1A1BB2891AC1E6B2
:1047D000DDF818C0524604F580581CF8013B7BBB3D
:1047E000D8F81817D8F8E805814229D2D8F8141754
:1047F000D8F80C07814223D9C8F81437A11841F220
:104800002C730120C854089B04EB8202A5EB5315BE
:10481000099B02F58052A9EB5313C2F83857C2F82E
:104820004837D2F81C07B4F8741403681E311B6BA8
:1048300009B29847D8F818370133C8F81837B7E6DF
:104840000132042AC9D1B3E6F26E012A7FF4CFAE59
:10485000D6F89C2093427FF7CAAE3068D8F8C436A9
:10486000B0F904108B4207DAD8F8E035C91A0368AA
:1048700009B21B6B9847BAE6C4BFD8F8E035C9182F
:10488000F5E70132FEE60A339A42BFF430AF6FF02B
:10489000FF032AE74FF0FF22042BC4F884267FF49D
:1048A00032AF2DE7182E7FF66DAF6FF0FF0165E791
:1048B00020250208702B00200000FFFFC42A0020E2
:1048C000F02070474FF4A07070472920FCF7E6BF36
:1048D0002820FCF7E3BF08B5FCF7B4FFCA20FCF7BB
:1048E000DDFFC320FCF7BEFF0820FCF7BBFF502014
:1048F000FCF7B8FFCF20FCF7D1FF0020FCF7B2FF98
:10490000C120FCF7AFFF3020FCF7ACFFED20FCF737
:10491000C5FF6420FCF7A6FF0320FCF7A3FF1220CD
:10492000FCF7A0FF8120FCF79DFFE820FCF7B6FF15
:104930008520FCF797FF0020FCF794FF7820FCF718
:1049400091FFCB20FCF7AAFF3920FCF78BFF2C202E
:10495000FCF788FF0020FCF785FF3420FCF782FF7E
:104960000220FCF77FFFF720FCF798FF2020FCF7E0
:1049700079FFEA20FCF792FF0020FCF773FF00208C
:10498000FCF770FFB120FCF789FF0020FCF76AFFFD
:104990001B20FCF767FFB620FCF780FF0A20FCF71E
:1049A00061FFA220FCF75EFFC020FCF777FF10201C
:1049B000FCF758FFC120FCF771FF1020FCF752FFF5
:1049C000C520FCF76BFF4520FCF74CFF1520FCF7DA
:1049D00049FFC720FCF762FF9020FCF743FF362019
:1049E000FCF75CFFC820FCF73DFFF220FCF756FF08
:1049F0000020FCF737FFB020FCF750FFC220FCF787
:104A000031FFB620FCF74AFF0A20FCF72BFFA72056
:104A1000FCF728FF2720FCF725FF0420FCF722FFE6
:104A20002A20FCF73BFF0020FCF71CFF0020FCF7CE
:104A300019FF0020FCF716FFEF20FCF713FF2B20D7
:104A4000FCF72CFF0020FCF70DFF0020FCF70AFF0D
:104A50000120FCF707FF3F20FCF704FFF620FCF7DE
:104A60001DFF0120FCF7FEFE0020FCF7FBFE0620E8
:104A7000FCF7F8FE2C20FCF711FFC820FCF75CFFC8
:104A80002620FCF70BFF0120FCF7ECFEE020FCF7F2
:104A900005FF0F20FCF7E6FE2920FCF7E3FE2420AB
:104AA000FCF7E0FE0C20FCF7DDFE0E20FCF7DAFE42
:104AB0000920FCF7D7FE4E20FCF7D4FE7820FCF747
:104AC000D1FE3C20FCF7CEFE0920FCF7CBFE1320E4
:104AD000FCF7C8FE0520FCF7C5FE1720FCF7C2FE58
:104AE0001120FCF7BFFE0020FCF7BCFEE120FCF724
:104AF000D5FE0020FCF7B6FE1620FCF7B3FE1B2007
:104B0000FCF7B0FE0420FCF7ADFE1120FCF7AAFE76
:104B10000720FCF7A7FE3120FCF7A4FE3320FCF7AA
:104B2000A1FE4220FCF79EFE0520FCF79BFE0C2018
:104B3000FCF798FE0A20FCF795FE2820FCF792FE71
:104B40002F20FCF78FFE0F20FCF78CFE1120FCF7C6
:104B5000A5FEC820FCF7F0FE2920FCF79FFEBDE86B
:104B600008402C20FCF79ABE08B5FCF76BFE032129
:104B7000D320FCF7AFFE80B208BD10B5C4B202224C
:104B800003212046FCF714FE0A20FCF759FE2046BC
:104B900000220321FCF70CFEBDE810400220FCF7C8
:104BA0004FBE38B50446E4B2FCF700FE00212046B3
:104BB000FCF716FE012105462046FCF711FE40EAEF
:104BC000052080B238BD10B5C4B240212046FCF7A4
:104BD00007FE030607D54C212046FCF701FE0038EE
:104BE00018BF012010BD01224B212046FCF7E0FD3B
:104BF000204600224B21FCF7DBFD0020F2E773B5D5
:104C00000423C4B20E461546D7210DEB03022046FD
:104C1000FCF700FE019B1BBA1A0DC3F30B23328075
:104C200020462B8001224B21FCF7C2FD00224B21A4
:104C30002046FCF7BDFD02B070BD000010B50A4B68
:104C40001A78904204460DD0597888420AD00AB1A9
:104C500041B901229C54FCF7A9FD2046BDE8104053
:104C6000FFF78BBF10BD00BF882E002010B5C4B267
:104C700009212046FCF7B4FD40F00100C2B2092131
:104C80002046BDE81040FCF793BD10B5C4B2092121
:104C90002046FCF7A5FD092100F0FE022046BDE8F4
:104CA0001040FCF785BD38B5C4B20D4620460A2138
:104CB000FCF796FD2843C2B20A212046BDE83840E1
:104CC000FCF776BD07B50190FCF771FD01981F2137
:104CD000FFF7E9FF019803B05DF804EBFFF7C6BFEB
:104CE00038B5C4B20D4620460A21FCF779FD20EA0A
:104CF0000500C2B20A212046BDE83840FCF758BD85
:104D000010B50446FFF7C1FF20461F21BDE8104043
:104D1000FFF7E6BF10B5C0B20C460B21FCF760FDF3
:104D2000204010BD1F21FFF7F5BF0A46C0B20B217E
:104D3000FCF73EBD1F21FFF7F8BF38B5C4B20D46E2
:104D400020461721FCF74CFD20EA0500C2B21721CE
:104D50002046BDE83840FCF72BBD70B5C4B206460E
:104D600004212046FCF73CFD042100F0FB0205462F
:104D70002046FCF71DFD3046F021FFF7DEFF05F071
:104D8000F80220460421FCF713FD49222021204689
:104D9000FCF70EFD0220FCF753FD204601222121E5
:104DA000FCF706FD20469A224121FCF701FD204632
:104DB00001224A21FCF7FCFC204601224B21FCF792
:104DC000F7FC204600224B21FCF7F2FC2046012292
:104DD0005621FCF7EDFC204601225821FCF7E8FCA7
:104DE000204601224021FCF7E3FC2046FF220B2154
:104DF000FCF7DEFCBDE870400220FCF721BD00009E
:104E0000054BD3F8882042F47002C3F888204FF095
:104E100000629A60704700BF00ED00E008B50B4BE0
:104E20001A6842F400721A601A6842F480621A60CA
:104E30001A6842F480721A60032000F02FF80020F4
:104E4000FCF7BCFFFCF786FD002008BD003C0240DB
:104E5000034A044B11681B780B441360704700BF72
:104E60008C2E002078000020014B1868704700BF8E
:104E70008C2E002038B50446FFF7F6FF631C1CBFDC
:104E8000054B1B78054618BFE418FFF7EDFF431BE1
:104E9000A342FAD338BD00BF780000200749CA6892
:104EA00022F4E0620302120403F4E063120C1343E1
:104EB00043F0BF6343F40033CB60704700ED00E084
:104EC000164B30B5DC68C4F30224C4F10705231D7A
:104ED000042D28BF0425062B4FF0FF338CBF033C65
:104EE000002403FA05F521EA0501A34022EA0302A2
:104EF000A140002841EA0203ACBF00F16040084A2B
:104F00004FEA0313B8BF00F00F00DBB2AABF00F5F1
:104F10006140135480F8003330BD00BF00ED00E065
:104F200014ED00E0002808DB4209012300F01F0017
:104F300003FA00F0014B43F82200704700E100E063
:104F400010B5044650B1437903F0FF0213B9027162
:104F5000FCF720FD01236371002010BD0120FCE758
:104F600010B5044630B390F8393003F0FF021BB996
:104F700080F83820FCF726FD22686168022384F857
:104F80003930136823F440330B431360536BA1682B
:104F900023F007030B435363136CE16823F47F533F
:104FA00023F03F030B43136400200123E06384F8E4
:104FB000393010BD0120FCE770477047036870B5B9
:104FC0005E681D68F207044614D5E90512D51A6813
:104FD00022F480721A60C26B42F00102C2630122A5
:104FE0009A60042380F83930002380F83830436910
:104FF00003B19847B20616D5AB0414D523681A68D6
:1050000022F400521A6020229A60E36B43F00203FC
:10501000E363042384F83930002384F8383063696B
:105020000BB120469847300716D5290514D52368BB
:105030001A6822F400621A6008229A60E36B43F057
:105040000403E363042384F83930002384F8383000
:1050500063690BB12046984772070BD56B0509D5DC
:1050600023681A6822F480621A6004229A6020463B
:10507000FFF7A2FFB00714D5A90512D523681A6857
:1050800022F400721A6002229A60E36BE363012348
:1050900084F83930002384F8383023690BB1204676
:1050A0009847F20613D5EB0411D523681A6822F449
:1050B00080521A6010229A60E36BE363012384F844
:1050C0003930002384F838302046FFF776FF70BD72
:1050D000F0B590F83830012B4FF002032BD00122AD
:1050E00080F8393080F8382000EB0113D3E907420B
:1050F0005D6A184F44EA0242093C012C9CBF05F04E
:105100007F431A434FEA0116036888BF42EA0562EB
:1051100099B9596A39400A435A62012C82699A61E5
:1051200003D8426A22F07F429A62012380F8393024
:10513000002380F838301846F0BDD96939400A4359
:10514000DA618219012C92691A619CBF25F07F45B2
:105150001D62EAE7F0FFFC002DE9F74FDFF8C09190
:105160006D4A00230D6801249C4004EA050CAC4301
:1051700040F0B9804D6805F003044FEA4308032668
:10518000671E06FA08F6012F6FEA060634D887680C
:1051900007EA060ECF6807FA08F747EA0E078760A6
:1051A000476827EA0C0EC5F300179F4047EA0E0731
:1051B0004760C76807EA060E8F6807FA08F747EAEC
:1051C0000E07022CC76019D14FEAD30A00EB8A0AF6
:1051D00003F0070BDAF820704FEA8B0B4FF00F0E3D
:1051E0000EFA0BFE27EA0E0E0F6907FA0BF747EAD5
:1051F0000E07CAF8207001E0032CDAD1076804FA20
:1052000008F43E40264315F4403F06606BD04FF053
:10521000000ACDF804A0D9F84460404C46F480461A
:10522000C9F84460D9F8446006F480460196019EAE
:1052300023F0030606F1804606F59C3603F0030EC4
:10524000D6F808804FEA8E0E0F2707FA0EF7A04215
:1052500028EA07074ED004F58064A0424CD004F53C
:105260008064A0424AD004F58064A04248D004F58E
:105270008064A04246D004F58064A04244D004F586
:105280008064A04242D004F58064A04240D004F57E
:105290008064A0423ED004F58064A0420CBF092483
:1052A0000A2404FA0EF43C43B46094686FEA0C06D6
:1052B000EF0254BF34404CEA04049460D468AF0257
:1052C00054BF34404CEA0404D4605468AF0354BF64
:1052D00034404CEA040454601468ED0354BF344075
:1052E0004CEA040414600133102B7FF43BAF03B08D
:1052F000BDE8F08F5446D4E70124D2E70224D0E77A
:105300000324CEE70424CCE70524CAE70624C8E733
:105310000724C6E70824C4E7003C0140000002401F
:10532000003802400369194214BF01200020704771
:105330000AB1816170470904FBE7436901EA03028E
:1053400021EA030141EA02418161704701684B692A
:1053500013F480634FF0000210D06FF480634B6150
:105360002023026380F83D3080F83E20036C80F8F3
:105370003C2043F004030364012070471846704743
:105380002DE9F84606460F4691461D464FEA114A5A
:105390003368BAF1010F0CBF5C699C6927EA040409
:1053A000A4B2B4FA84F46409A14501D0002017E046
:1053B0006A1CEED0FFF758FD089BC01AA84201D81E
:1053C000002DE5D100232022336386F83D2086F8A6
:1053D0003E30326C86F83C3042F0200232640120CC
:1053E000BDE8F8862DE9F04104460F46164698467A
:1053F0002568686927EA000080B2B8B16B695A0570
:1054000016D52B6843F400732B606FF480636B61D7
:1054100020220023236384F83D2084F83E30226C50
:1054200042F00402226484F83C300120BDE8F0819F
:10543000731CDED0FFF718FDA0EB0800B04201D8C6
:10544000002ED5D100232022236384F83D2084F848
:105450003E30226C42F02002E4E770B504460D466F
:10546000164621684B6913F0400301D0002010E07C
:105470004A69D2060ED56FF010024A6120222363DA
:1054800084F83D2084F83E30226C226484F83C305D
:10549000012070BDFFF7E8FC801BA84201D8002D59
:1054A000DFD100232022236384F83D2084F83E309E
:1054B000226C42F02002E8E770B504460D4616461D
:1054C00023685B695B0701D5002070BD2046FFF7AC
:1054D0003DFFA8B96A1CF3D0FFF7C6FC801BA842A9
:1054E00001D8002DECD100232022236384F83D2035
:1054F00084F83E30226C84F83C3042F02002226472
:105500000120E2E770B504460D46164623685B6944
:105510001B0601D5002070BD2046FFF717FFA8B974
:105520006A1CF3D0FFF7A0FC801BA84201D8002D15
:10553000ECD100232022236384F83D2084F83E3000
:10554000226C84F83C3042F0200222640120E2E721
:105550002DE9F0431546026885B0DDE90C789946DF
:10556000136843F4807313600E463B46CDF8008009
:1055700000224FF001110446FFF702FF236838B103
:105580001B68DB0502D54FF40073236403200AE097
:1055900006F0FE061E61194943463A462046FFF7CB
:1055A00021FF18B1012005B0BDE8F0832368039006
:1055B0005A6903929B690393424639462046039BEE
:1055C000FFF7A0FF40B1236C042B01BF22681368D2
:1055D00043F400731360E5E7B9F1010F236802D1CA
:1055E000EDB21D61DFE72A0A1A61394642462046BC
:1055F000FFF788FF0028E6D12368F1E702000100E9
:105600002DE9FF479A46036815461A6842F48062FE
:105610001A601A68DDE90C7842F480721A600E464E
:105620003B46CDF8008000224FF001110446FFF701
:10563000A7FE236848B11B68DB0502D54FF4007351
:105640002364032004B0BDE8F0875FFA86F906F012
:10565000FE061E612A4943463A462046FFF7C2FE2F
:1056600008B10120EEE7236803905A6903929B6911
:105670000393424639462046039BFFF743FF40B160
:10568000236C042B01BF2268136843F4007313607A
:10569000E7E7BAF1010F23681AD1EDB21D61424666
:1056A00039462046FFF72EFF0028E9D1226813680B
:1056B00043F4807313604FF001110246CDF800806F
:1056C0003B462046FFF75CFE226860B11368B3E7F3
:1056D0002A0A1A61394642462046FFF713FF00287E
:1056E000CED12368D9E749F0010313610449434649
:1056F0003A462046FFF776FE003818BF0120A1E7A2
:105700000200010070B5044608B9012070BD90F890
:105710003D3003F0FF021BB980F83C20FCF774F920
:10572000242384F83D3023681A6822F001021A60AD
:105730001A6842F400421A601A6822F400421A60A1
:1057400000F074FE3F4B65689D4294BF3E4B3F4B5B
:1057500098428CBF00230123002BD6D12268394EFA
:1057600053683B49B0FBF1F123F03F030B43B542D3
:10577000536088BF4FF49676136A88BF714323F055
:105780003F0384BF4FF47A76B1FBF6F10131194340
:105790001162D169431E2B4821F44F41854221F00B
:1057A000FF0132D86D0040F6FC70B3FBF5F3013316
:1057B000034242D0C3F30B030B43D361D4E9073058
:1057C0001168034321F0C0010B4313609168D4E9D1
:1057D000030321F40341034321F0FF010B439360D2
:1057E000D4E90530D168034321F0FF010B43D360B6
:1057F000136843F00103136000202023206484F821
:105800003D30206384F83E0080E7A06850B905EB86
:105810004505B3FBF5F30133C3F30B037BB143F44D
:105820000043C9E719204543B3FBF5F30133C3F344
:105830000B0323B143F44043BEE70423BCE7012339
:10584000BAE700BFA08601007F841E00FF083D006C
:1058500040420F002DE9F743044699460C9E0F463F
:105860009046FFF701FB94F83D30202B054603D00E
:10587000022003B0BDE8F08300903C4919230122C7
:105880002046FFF77DFD0028F2D194F83C30012B33
:10589000EED02068012384F83C300368D9075EBF4E
:1058A000036843F001030360036823F400630360AB
:1058B000212384F83D30402384F83E3000232364C4
:1058C0000A9B6362BDF82C306385638D2385284B6A
:1058D000E362CDE900654B46424639462046FFF774
:1058E00037FE00282AD00120C3E7FFF70BFE40B1A6
:1058F000236C042B01BF2268136843F40073136008
:10590000F1E7636A27681A4612F8011B396162627F
:10591000628D218D013A92B262857A69481E80B209
:10592000520720850AD548B15A783A61023363623A
:10593000638D013B02399BB221856385238D2A4605
:1059400031462046002BD0D1FFF7B6FD0028CFD13D
:105950002268136843F400731360202384F83D30F9
:1059600084F83C0084F83E0083E700BF020010008A
:105970000000FFFF2DE9F043044687B09946109FD1
:105980000D469046FFF770FA94F83D30202B0646FE
:1059900004D00225284607B0BDE8F0830090764980
:1059A000192301222046FFF7EBFC0028F1D194F8DF
:1059B0003C30012BEDD02068012384F83C30036893
:1059C000DB075EBF036843F001030360036823F451
:1059D00000630360222384F83D30402384F83E3086
:1059E000002323640E9B6362BDF83C306385638DA6
:1059F0002385624BE3622946CDE900764B46424659
:105A00002046FFF7FDFD054608B10125C2E7228DBE
:105A10002368B2B902905A6902929A690292029A74
:105A20001A6842F400721A60DFF85481238D002B4B
:105A30002CD1202284F83D2084F83C3084F83E307C
:105A4000A8E7012A0AD11A6822F480621A6003903A
:105A50005A6903929A690392039AE1E7022A0ED1E6
:105A60001A6822F480621A601A6842F400621A60AE
:105A700004905A6904929B690493049BD4E70590AF
:105A80005A6905929B690593059BCDE7032B56D870
:105A9000012B15D1324639462046FFF7DEFC00289F
:105AA000B3D123681A69636A1A70636A0133636247
:105AB000238D013B2385638D013B9BB26385B5E755
:105AC000022B00963B464FF000024146204619D17A
:105AD000FFF756FC002898D123681A6842F4007238
